{
  "contractName": "shop",
  "abi": [
    {
      "constant": true,
      "inputs": [],
      "name": "transaction_index",
      "outputs": [
        {
          "name": "",
          "type": "uint256"
        }
      ],
      "payable": false,
      "stateMutability": "view",
      "type": "function"
    },
    {
      "constant": true,
      "inputs": [],
      "name": "balance",
      "outputs": [
        {
          "name": "",
          "type": "uint256"
        }
      ],
      "payable": false,
      "stateMutability": "view",
      "type": "function"
    },
    {
      "constant": true,
      "inputs": [],
      "name": "product_index",
      "outputs": [
        {
          "name": "",
          "type": "uint256"
        }
      ],
      "payable": false,
      "stateMutability": "view",
      "type": "function"
    },
    {
      "anonymous": false,
      "inputs": [],
      "name": "post_product_success",
      "type": "event"
    },
    {
      "anonymous": false,
      "inputs": [],
      "name": "top_up_success",
      "type": "event"
    },
    {
      "anonymous": false,
      "inputs": [],
      "name": "withdraw_success",
      "type": "event"
    },
    {
      "anonymous": false,
      "inputs": [],
      "name": "buy_product_success",
      "type": "event"
    },
    {
      "anonymous": false,
      "inputs": [],
      "name": "modify_product_success",
      "type": "event"
    },
    {
      "constant": false,
      "inputs": [
        {
          "name": "_name",
          "type": "bytes32"
        },
        {
          "name": "_description",
          "type": "bytes32"
        },
        {
          "name": "_price",
          "type": "uint256"
        },
        {
          "name": "_quantity",
          "type": "uint256"
        }
      ],
      "name": "post_product",
      "outputs": [
        {
          "name": "",
          "type": "bool"
        }
      ],
      "payable": false,
      "stateMutability": "nonpayable",
      "type": "function"
    },
    {
      "constant": true,
      "inputs": [
        {
          "name": "_id",
          "type": "uint256"
        }
      ],
      "name": "get_product",
      "outputs": [
        {
          "name": "",
          "type": "uint256"
        },
        {
          "name": "",
          "type": "bytes32"
        },
        {
          "name": "",
          "type": "bytes32"
        },
        {
          "name": "",
          "type": "uint256"
        },
        {
          "name": "",
          "type": "uint256"
        },
        {
          "name": "",
          "type": "address"
        },
        {
          "name": "",
          "type": "bool"
        }
      ],
      "payable": false,
      "stateMutability": "view",
      "type": "function"
    },
    {
      "constant": true,
      "inputs": [],
      "name": "get_all_products",
      "outputs": [
        {
          "name": "",
          "type": "uint256[]"
        },
        {
          "name": "",
          "type": "bytes32[]"
        },
        {
          "name": "",
          "type": "bytes32[]"
        },
        {
          "name": "",
          "type": "uint256[]"
        },
        {
          "name": "",
          "type": "uint256[]"
        }
      ],
      "payable": false,
      "stateMutability": "view",
      "type": "function"
    },
    {
      "constant": true,
      "inputs": [],
      "name": "get_products",
      "outputs": [
        {
          "name": "",
          "type": "uint256[]"
        }
      ],
      "payable": false,
      "stateMutability": "view",
      "type": "function"
    },
    {
      "constant": false,
      "inputs": [
        {
          "name": "_id",
          "type": "uint256"
        },
        {
          "name": "_amount",
          "type": "uint256"
        }
      ],
      "name": "buy_product",
      "outputs": [
        {
          "name": "",
          "type": "uint256"
        }
      ],
      "payable": false,
      "stateMutability": "nonpayable",
      "type": "function"
    },
    {
      "constant": true,
      "inputs": [
        {
          "name": "_id",
          "type": "uint256"
        }
      ],
      "name": "get_transaction",
      "outputs": [
        {
          "name": "",
          "type": "uint256"
        },
        {
          "name": "",
          "type": "address"
        },
        {
          "name": "",
          "type": "uint256"
        },
        {
          "name": "",
          "type": "bytes32"
        },
        {
          "name": "",
          "type": "uint256"
        },
        {
          "name": "",
          "type": "uint256"
        },
        {
          "name": "",
          "type": "uint256"
        },
        {
          "name": "",
          "type": "uint8"
        }
      ],
      "payable": false,
      "stateMutability": "view",
      "type": "function"
    },
    {
      "constant": true,
      "inputs": [],
      "name": "get_balance",
      "outputs": [
        {
          "name": "",
          "type": "uint256"
        }
      ],
      "payable": false,
      "stateMutability": "view",
      "type": "function"
    },
    {
      "constant": false,
      "inputs": [
        {
          "name": "value",
          "type": "uint256"
        }
      ],
      "name": "top_up",
      "outputs": [
        {
          "name": "",
          "type": "bool"
        }
      ],
      "payable": true,
      "stateMutability": "payable",
      "type": "function"
    },
    {
      "constant": false,
      "inputs": [
        {
          "name": "id",
          "type": "uint256"
        }
      ],
      "name": "comfirm_transac",
      "outputs": [
        {
          "name": "",
          "type": "uint256"
        }
      ],
      "payable": false,
      "stateMutability": "nonpayable",
      "type": "function"
    },
    {
      "constant": false,
      "inputs": [
        {
          "name": "id",
          "type": "uint256"
        }
      ],
      "name": "cancel_transac",
      "outputs": [
        {
          "name": "",
          "type": "uint256"
        }
      ],
      "payable": false,
      "stateMutability": "nonpayable",
      "type": "function"
    },
    {
      "constant": false,
      "inputs": [
        {
          "name": "value",
          "type": "uint256"
        }
      ],
      "name": "withdraw",
      "outputs": [
        {
          "name": "",
          "type": "uint256"
        }
      ],
      "payable": false,
      "stateMutability": "nonpayable",
      "type": "function"
    },
    {
      "constant": false,
      "inputs": [
        {
          "name": "_id",
          "type": "uint256"
        },
        {
          "name": "_name",
          "type": "bytes32"
        },
        {
          "name": "_description",
          "type": "bytes32"
        },
        {
          "name": "_price",
          "type": "uint256"
        },
        {
          "name": "_quantity",
          "type": "uint256"
        },
        {
          "name": "exist",
          "type": "bool"
        }
      ],
      "name": "modify_byID",
      "outputs": [
        {
          "name": "",
          "type": "uint256"
        }
      ],
      "payable": false,
      "stateMutability": "nonpayable",
      "type": "function"
    }
  ],
  "bytecode": "0x60606040526000805560006001556000600255341561001d57600080fd5b611b718061002c6000396000f3006060604052600436106100db576000357c0100000000000000000000000000000000000000000000000000000000900463ffffffff1680631396c634146100e05780631d9faa1114610182578063272fe655146101c25780632e1a7d4d146101f957806334fa5dc5146102305780636f11432d146102675780638abbd584146103085780638eda12121461049257806394272e1c146104f0578063b69ef8a814610519578063c17644a814610542578063c1cfb99a146105ac578063dc7727df146105d5578063e4e0949514610643578063f74d8de814610673575b600080fd5b34156100eb57600080fd5b610101600480803590602001909190505061069c565b604051808981526020018873ffffffffffffffffffffffffffffffffffffffff1673ffffffffffffffffffffffffffffffffffffffff16815260200187815260200186600019166000191681526020018581526020018481526020018381526020018260ff1660ff1681526020019850505050505050505060405180910390f35b341561018d57600080fd5b6101ac60048080359060200190919080359060200190919050506107d9565b6040518082815260200191505060405180910390f35b34156101cd57600080fd5b6101e36004808035906020019091905050610c0a565b6040518082815260200191505060405180910390f35b341561020457600080fd5b61021a6004808035906020019091905050610d69565b6040518082815260200191505060405180910390f35b341561023b57600080fd5b6102516004808035906020019091905050610ee5565b6040518082815260200191505060405180910390f35b341561027257600080fd5b610288600480803590602001909190505061102e565b60405180888152602001876000191660001916815260200186600019166000191681526020018581526020018481526020018373ffffffffffffffffffffffffffffffffffffffff1673ffffffffffffffffffffffffffffffffffffffff1681526020018215151515815260200197505050505050505060405180910390f35b341561031357600080fd5b61031b61118c565b60405180806020018060200180602001806020018060200186810386528b818151815260200191508051906020019060200280838360005b8381101561036e578082015181840152602081019050610353565b5050505090500186810385528a818151815260200191508051906020019060200280838360005b838110156103b0578082015181840152602081019050610395565b50505050905001868103845289818151815260200191508051906020019060200280838360005b838110156103f25780820151818401526020810190506103d7565b50505050905001868103835288818151815260200191508051906020019060200280838360005b83811015610434578082015181840152602081019050610419565b50505050905001868103825287818151815260200191508051906020019060200280838360005b8381101561047657808201518184015260208101905061045b565b505050509050019a505050505050505050505060405180910390f35b341561049d57600080fd5b6104d660048080356000191690602001909190803560001916906020019091908035906020019091908035906020019091905050611475565b604051808215151515815260200191505060405180910390f35b34156104fb57600080fd5b610503611710565b6040518082815260200191505060405180910390f35b341561052457600080fd5b61052c611716565b6040518082815260200191505060405180910390f35b341561054d57600080fd5b61055561171c565b6040518080602001828103825283818151815260200191508051906020019060200280838360005b8381101561059857808201518184015260208101905061057d565b505050509050019250505060405180910390f35b34156105b757600080fd5b6105bf61177a565b6040518082815260200191505060405180910390f35b34156105e057600080fd5b61062d6004808035906020019091908035600019169060200190919080356000191690602001909190803590602001909190803590602001909190803515159060200190919050506117c4565b6040518082815260200191505060405180910390f35b6106596004808035906020019091905050611961565b604051808215151515815260200191505060405180910390f35b341561067e57600080fd5b610686611a08565b6040518082815260200191505060405180910390f35b6000806000806000806000806106b0611a0e565b6000548a1015156106c057600080fd5b600660008b81526020019081526020016000206101006040519081016040529081600082015481526020016001820160009054906101000a900473ffffffffffffffffffffffffffffffffffffffff1673ffffffffffffffffffffffffffffffffffffffff1673ffffffffffffffffffffffffffffffffffffffff1681526020016002820154815260200160038201546000191660001916815260200160048201548152602001600582015481526020016006820160009054906101000a900460ff1660ff1660ff16815260200160078201548152505090508981602001518260400151836060015184608001518560a001518660e001518760c001519850985098509850985098509850985050919395975091939597565b6000806107e4611a0e565b6000600102600560008781526020019081526020016000206001015460001916148061081257506001548510155b156108205760009250610c02565b6005600086815260200190815260200160002091506000841115806108485750838260040154105b156108565760019250610c02565b3373ffffffffffffffffffffffffffffffffffffffff168260050160009054906101000a900473ffffffffffffffffffffffffffffffffffffffff1673ffffffffffffffffffffffffffffffffffffffff1614156108b75760029250610c02565b81600301548402600760003373ffffffffffffffffffffffffffffffffffffffff1673ffffffffffffffffffffffffffffffffffffffff1681526020019081526020016000206001015410156109105760039250610c02565b83826004016000828254039250508190555081600301548402600760003373ffffffffffffffffffffffffffffffffffffffff1673ffffffffffffffffffffffffffffffffffffffff168152602001908152602001600020600101600082825403925050819055506101006040519081016040528060005481526020013373ffffffffffffffffffffffffffffffffffffffff168152602001868152602001836001015460001916815260200183600301548152602001858152602001600160ff1681526020014281525090508060066000805481526020019081526020016000206000820151816000015560208201518160010160006101000a81548173ffffffffffffffffffffffffffffffffffffffff021916908373ffffffffffffffffffffffffffffffffffffffff16021790555060408201518160020155606082015181600301906000191690556080820151816004015560a0820151816005015560c08201518160060160006101000a81548160ff021916908360ff16021790555060e0820151816007015590505060048054806001018281610ab39190611a70565b91600052602060002090016000805490919091505550600760003373ffffffffffffffffffffffffffffffffffffffff1673ffffffffffffffffffffffffffffffffffffffff1681526020019081526020016000206004018054806001018281610b1d9190611a70565b91600052602060002090016000805490919091505550600760008360050160009054906101000a900473ffffffffffffffffffffffffffffffffffffffff1673ffffffffffffffffffffffffffffffffffffffff1673ffffffffffffffffffffffffffffffffffffffff1681526020019081526020016000206004018054806001018281610bab9190611a70565b91600052602060002090016000805490919091505550600160008082825401925050819055507ffd1e21e9bf220ca183844c120255c93a330df10cdc7ffe2147307ab214f49e3860405160405180910390a1600492505b505092915050565b60008060006001026006600085815260200190815260200160002060030154600019161415610c3c5760009150610d63565b60066000848152602001908152602001600020905060028160060160009054906101000a900460ff1660ff161480610c88575060038160060160009054906101000a900460ff1660ff16145b15610c965760019150610d63565b8060050154816004015402600760008360010160009054906101000a900473ffffffffffffffffffffffffffffffffffffffff1673ffffffffffffffffffffffffffffffffffffffff1673ffffffffffffffffffffffffffffffffffffffff16815260200190815260200160002060010160008282540192505081905550806005015460056000836002015481526020019081526020016000206004016000828254019250508190555060038160060160006101000a81548160ff021916908360ff160217905550600291505b50919050565b600080600760003373ffffffffffffffffffffffffffffffffffffffff1673ffffffffffffffffffffffffffffffffffffffff168152602001908152602001600020600101541480610dbc575060008211155b80610e08575081600760003373ffffffffffffffffffffffffffffffffffffffff1673ffffffffffffffffffffffffffffffffffffffff16815260200190815260200160002060010154105b15610e165760009050610ee0565b81600760003373ffffffffffffffffffffffffffffffffffffffff1673ffffffffffffffffffffffffffffffffffffffff168152602001908152602001600020600101600082825403925050819055503373ffffffffffffffffffffffffffffffffffffffff166108fc66038d7ea4c6800084029081150290604051600060405180830381858888f193505050501515610eaf57600080fd5b7f8051a3857d463da48c0801200bcbc9c9f2186cc2b94c03c2dc86db788e855d6260405160405180910390a1600190505b919050565b60008060006001026006600085815260200190815260200160002060030154600019161415610f175760009150611028565b60066000848152602001908152602001600020905060028160060160009054906101000a900460ff1660ff161480610f63575060038160060160009054906101000a900460ff1660ff16145b15610f715760019150611028565b60028160060160006101000a81548160ff021916908360ff160217905550806005015481600401540260076000600560008560020154815260200190815260200160002060050160009054906101000a900473ffffffffffffffffffffffffffffffffffffffff1673ffffffffffffffffffffffffffffffffffffffff1673ffffffffffffffffffffffffffffffffffffffff16815260200190815260200160002060010160008282540192505081905550600291505b50919050565b6000806000806000806000611041611a9c565b6000600102600560008b8152602001908152602001600020600101546000191614158015611070575060015489105b151561107b57600080fd5b600560008a815260200190815260200160002060e060405190810160405290816000820154815260200160018201546000191660001916815260200160028201546000191660001916815260200160038201548152602001600482015481526020016005820160009054906101000a900473ffffffffffffffffffffffffffffffffffffffff1673ffffffffffffffffffffffffffffffffffffffff1673ffffffffffffffffffffffffffffffffffffffff1681526020016005820160149054906101000a900460ff1615151515815250509050806000015181602001518260400151836060015184608001518560a001518660c00151975097509750975097509750975050919395979092949650565b611194611af8565b61119c611b0c565b6111a4611b0c565b6111ac611af8565b6111b4611af8565b60006111be611af8565b6111c6611b0c565b6111ce611b0c565b6111d6611af8565b6111de611af8565b6000806111e9611a9c565b6003805490509850886040518059106111ff5750595b90808252806020026020018201604052509750886040518059106112205750595b90808252806020026020018201604052509650886040518059106112415750595b90808252806020026020018201604052509550886040518059106112625750595b90808252806020026020018201604052509450886040518059106112835750595b908082528060200260200182016040525093505b88831015611456576003838154811015156112ae57fe5b90600052602060002090015491506005600083815260200190815260200160002060e060405190810160405290816000820154815260200160018201546000191660001916815260200160028201546000191660001916815260200160038201548152602001600482015481526020016005820160009054906101000a900473ffffffffffffffffffffffffffffffffffffffff1673ffffffffffffffffffffffffffffffffffffffff1673ffffffffffffffffffffffffffffffffffffffff1681526020016005820160149054906101000a900460ff1615151515815250509050806000015188848151811015156113a357fe5b9060200190602002018181525050806020015187848151811015156113c457fe5b906020019060200201906000191690816000191681525050806040015186848151811015156113ef57fe5b9060200190602002019060001916908160001916815250508060600151858481518110151561141a57fe5b90602001906020020181815250508060800151848481518110151561143b57fe5b90602001906020020181815250508280600101935050611297565b87878787879d509d509d509d509d505050505050505050509091929394565b600061147f611a9c565b60e060405190810160405280600154815260200187600019168152602001866000191681526020018581526020018481526020013373ffffffffffffffffffffffffffffffffffffffff1681526020016001151581525090506000841180156114e85750600083115b156117025780600560006001548152602001908152602001600020600082015181600001556020820151816001019060001916905560408201518160020190600019169055606082015181600301556080820151816004015560a08201518160050160006101000a81548173ffffffffffffffffffffffffffffffffffffffff021916908373ffffffffffffffffffffffffffffffffffffffff16021790555060c08201518160050160146101000a81548160ff021916908315150217905550905050600380548060010182816115bf9190611a70565b9160005260206000209001600060015490919091505550600760003373ffffffffffffffffffffffffffffffffffffffff1673ffffffffffffffffffffffffffffffffffffffff168152602001908152602001600020600301805480600101828161162a9190611a70565b916000526020600020900160006001549091909150555033600760003373ffffffffffffffffffffffffffffffffffffffff1673ffffffffffffffffffffffffffffffffffffffff16815260200190815260200160002060020160006101000a81548173ffffffffffffffffffffffffffffffffffffffff021916908373ffffffffffffffffffffffffffffffffffffffff1602179055507f90db359d6a0d7fc207b7670e34cc1413c004b5077ec74c921e92e1db0b014aa560405160405180910390a1600180540160018190555060019150611707565b600091505b50949350505050565b60005481565b60025481565b611724611af8565b600380548060200260200160405190810160405280929190818152602001828054801561177057602002820191906000526020600020905b81548152602001906001019080831161175c575b5050505050905090565b6000600760003373ffffffffffffffffffffffffffffffffffffffff1673ffffffffffffffffffffffffffffffffffffffff16815260200190815260200160002060010154905090565b60006005600088815260200190815260200160002060050160009054906101000a900473ffffffffffffffffffffffffffffffffffffffff1673ffffffffffffffffffffffffffffffffffffffff163373ffffffffffffffffffffffffffffffffffffffff1614151561183a5760009050611957565b600060010260056000898152602001908152602001600020600101546000191614158015611869575060015487105b8015611876575060008414155b15611952578560056000898152602001908152602001600020600101816000191690555084600560008981526020019081526020016000206002018160001916905550836005600089815260200190815260200160002060030181905550826005600089815260200190815260200160002060040181905550816005600089815260200190815260200160002060050160146101000a81548160ff0219169083151502179055507ff6fc437f1dd125b211b825655a2f14597c4dd9378b393710d6dd4588cbed9e5e60405160405180910390a160019050611957565b600290505b9695505050505050565b600066038d7ea4c680003481151561197557fe5b048214151561198357600080fd5b81600760003373ffffffffffffffffffffffffffffffffffffffff1673ffffffffffffffffffffffffffffffffffffffff168152602001908152602001600020600101600082825401925050819055507f94882c886efd526a77e7e6f010fc45109784c25a1c7a56928065914c2d28060c60405160405180910390a160019050919050565b60015481565b6101006040519081016040528060008152602001600073ffffffffffffffffffffffffffffffffffffffff16815260200160008152602001600080191681526020016000815260200160008152602001600060ff168152602001600081525090565b815481835581811511611a9757818360005260206000209182019101611a969190611b20565b5b505050565b60e0604051908101604052806000815260200160008019168152602001600080191681526020016000815260200160008152602001600073ffffffffffffffffffffffffffffffffffffffff1681526020016000151581525090565b602060405190810160405280600081525090565b602060405190810160405280600081525090565b611b4291905b80821115611b3e576000816000905550600101611b26565b5090565b905600a165627a7a72305820b916c5d59324ae62d0cdbc881b2fe96b0bbac6567bee4e0ed4b61edce57ec86a0029",
  "source": "pragma solidity ^0.4.18;\n\n\ncontract shop{\n    uint256 public transaction_index=0;\n    uint256 public product_index = 0;\n    uint256 public balance = 0;\n    uint256[] product_idArray;\n    uint256[] transaction_idArray;\n    //address[] shops_hash_array;\n\n    mapping(uint256 => Product) products;\n    mapping(uint256 => Transaction) transactions;\n    mapping (address => User) shops;\n    \n\n    struct Product{\n        uint256 id;\n        bytes32 name;\n        bytes32 description;\n        uint256 price;\n        uint256 quantity; \n        address owner;\n        bool exist;\n    }\n    struct Transaction{\n        uint256 id;\n        address buyer;\n        uint256 product_id;\n        bytes32 name;\n        uint256 price;\n        uint256 quantity;\n        // status:\n        // 1: order proccessing\n        // 2: order finished\n        // 3: order canceled\n        uint8 status;\n        uint time;\n    }\n    struct User{\n        bool exist;\n        uint256 balance;\n        address seller;\n        uint256[] ownproducts;\n        uint256[] transactionlist;\n    }\n\n    event post_product_success();\n    event top_up_success();\n    event withdraw_success();\n    event buy_product_success();\n    event modify_product_success();\n\n    \n    function post_product(bytes32 _name, bytes32 _description, uint256 _price, uint256 _quantity) public returns (bool){\n        Product memory p = Product(product_index, _name, _description, _price, _quantity, msg.sender, true);\n        if(_price > 0 && _quantity > 0 ){\n            products[product_index] = p;   \n            product_idArray.push(product_index);  \n            shops[msg.sender].ownproducts.push(product_index);\n            shops[msg.sender].seller = msg.sender;\n            emit post_product_success();\n            product_index = product_index + 1; \n            return true;\n        }\n        return false;\n    }\n    \n    function get_product(uint256 _id) public view returns (uint256, bytes32, bytes32, uint256, uint256, address, bool){\n        require(products[_id].name!=0 && _id < product_index);\n        Product memory p = products[_id];\n        return (p.id, p.name, p.description, p.price, p.quantity,p.owner,p.exist);\n    }\n    \n    function get_all_products() public view returns (uint256[], bytes32[], bytes32[], uint256[], uint256[]){\n        uint256 item_number = product_idArray.length;\n        uint256[] memory id_array = new uint256[](item_number);\n        bytes32[] memory name_array = new bytes32[](item_number);\n        bytes32[] memory des_array = new bytes32[](item_number);\n        uint256[] memory price_array = new uint256[](item_number);\n        uint256[] memory quan_array = new uint256[](item_number);\n        for (uint i;i<item_number;i++){\n            uint256 id = product_idArray[i];\n            Product memory p = products[id];\n            id_array[i]= p.id;\n            name_array[i]=p.name;\n            des_array[i]=p.description;\n            price_array[i]=p.price;\n            quan_array[i]=p.quantity;\n        }\n        return (id_array,\n            name_array,\n            des_array,\n            price_array,\n            quan_array);\n    }\n\n    function get_products() public view returns (uint256[]) {\n        return product_idArray;\n    }\n    \n    function buy_product(uint256 _id, uint256 _amount) public returns (uint) {\n        // we check whether the product exists\n        // require(products[_id].name!=0 && _id < product_index);\n        if (products[_id].name==0 || _id >= product_index) return 0;\n        \n        Product storage p = products[_id];\n        \n        // we check buying amount larger than 0 and whether the any product left or quantity is enough to sold\n        if (_amount<=0 || p.quantity < _amount) return 1;\n        \n        // we don't allow the seller to buy his/her own product\n        // require(p.owner != msg.sender);\n        if (p.owner==msg.sender) return 2;\n        \n        if (shops[msg.sender].balance<_amount* p.price) return 3;\n\n        // keep buyer's information\n        \n        p.quantity -= _amount;\n        \n        shops[msg.sender].balance -= _amount* p.price;\n\n        Transaction memory t = Transaction(transaction_index, msg.sender, _id, p.name, p.price,  _amount, 1, now);\n        \n        transactions[transaction_index] = t;\n        \n        transaction_idArray.push(transaction_index);\n\n        shops[msg.sender].transactionlist.push(transaction_index);\n        \n        shops[p.owner].transactionlist.push(transaction_index);\n        \n        transaction_index+=1;\n        \n\n        // trigger the event\n        emit buy_product_success();\n        return 4;\n        \n    }\n    function get_transaction(uint256 _id) public view returns(uint256, address, uint256, bytes32,uint256, uint256, uint, uint8){\n        require(_id < transaction_index);\n        Transaction memory t = transactions[_id];\n        return(_id, t.buyer, t.product_id, t.name, t.price, t.quantity, t.time, t.status);\n    }\n    \n    function get_balance() public view returns(uint256) {\n        return shops[msg.sender].balance;\n    }\n\n    function top_up(uint256 value) payable public returns (bool) {\n        require(value == msg.value/10**15);\n        shops[msg.sender].balance += value;\n        emit top_up_success();\n        return true;\n    } \n\n    function comfirm_transac(uint id) public returns (uint)  {\n        // transaction not exist\n        if (transactions[id].name==0) return 0;\n        Transaction storage t = transactions[id];\n        // invid order status\n        if (t.status==2 || t.status==3) return 1;\n        t.status = 2;\n        shops[products[t.product_id].owner].balance += t.price*t.quantity;\n        return 2;\n    }\n\n    function cancel_transac(uint id) public returns (uint)  {\n        // transaction not exist\n        if (transactions[id].name==0) return 0;\n        Transaction storage t = transactions[id];\n        // invilid order status\n        if (t.status==2 || t.status==3) return 1;\n        shops[t.buyer].balance += t.price*t.quantity;\n        products[t.product_id].quantity+=t.quantity;\n        t.status = 3;\n        return 2;\n    }\n\n    function withdraw(uint256 value) public returns (uint) {\n        // invalid value\n        if (shops[msg.sender].balance==0 || value <= 0 || shops[msg.sender].balance<value) return 0;\n        shops[msg.sender].balance -= value;\n        msg.sender.transfer(value*10**15);\n        emit withdraw_success();\n        return 1;\n    }\n\n    // function withdraw(uint16 value)  public returns (bool) {\n    //     require(balance >= value);\n    //     balance -= value;\n    //     msg.sender.transfer(value);\n    //     return true;\n    // }\n    //modifier the paramater.\n    //clarafy the paramater is null or not in the web3\n    function modify_byID(uint256 _id, bytes32 _name, bytes32 _description, uint256 _price, uint _quantity, bool exist)  public returns (uint) {\n        if (msg.sender != products[_id].owner){\n            return 0;\n        }\n        if (products[_id].name!=0 && _id < product_index && _price!=0){\n            products[_id].name=_name;\n            products[_id].description=_description;\n            products[_id].price=_price;\n            products[_id].quantity=_quantity;\n            products[_id].exist= exist;\n            emit modify_product_success();\n            return 1;\n        }\n        return 2;\n    }\n    \n}",
  "sourcePath": "/Users/apple/shopping-cart-dapp-landing-as-boxes/contracts/shop.sol",
  "compiler": {
    "name": "solc",
    "version": "0.4.21+commit.dfe3193c.Emscripten.clang"
  },
  "schemaVersion": "2.0.0",
  "updatedAt": "2018-05-16T02:42:35.821Z"
}